{
  "_format": "hh-sol-artifact-1",
  "contractName": "Vesting",
  "sourceName": "contracts/Vesting.sol",
  "abi": [
    {
      "inputs": [],
      "stateMutability": "nonpayable",
      "type": "constructor"
    },
    {
      "anonymous": false,
      "inputs": [
        {
          "indexed": false,
          "internalType": "address",
          "name": "receiver",
          "type": "address"
        },
        {
          "indexed": false,
          "internalType": "uint256",
          "name": "tokensMinted",
          "type": "uint256"
        }
      ],
      "name": "Minted",
      "type": "event"
    },
    {
      "anonymous": false,
      "inputs": [
        {
          "indexed": false,
          "internalType": "string",
          "name": "tokenName",
          "type": "string"
        },
        {
          "indexed": false,
          "internalType": "string",
          "name": "tokenSymbol",
          "type": "string"
        },
        {
          "indexed": false,
          "internalType": "address",
          "name": "contractAddress",
          "type": "address"
        },
        {
          "indexed": false,
          "internalType": "address",
          "name": "admin",
          "type": "address"
        }
      ],
      "name": "OrganisationListed",
      "type": "event"
    },
    {
      "anonymous": false,
      "inputs": [
        {
          "indexed": false,
          "internalType": "enum Vesting.UserRole",
          "name": "userRole",
          "type": "uint8"
        },
        {
          "indexed": false,
          "internalType": "address",
          "name": "organisationAddress",
          "type": "address"
        }
      ],
      "name": "Whitelist",
      "type": "event"
    },
    {
      "anonymous": false,
      "inputs": [
        {
          "indexed": false,
          "internalType": "address",
          "name": "organisationAddress",
          "type": "address"
        },
        {
          "indexed": false,
          "internalType": "enum Vesting.UserRole",
          "name": "userRole",
          "type": "uint8"
        },
        {
          "indexed": false,
          "internalType": "address",
          "name": "stakeHolderAddress",
          "type": "address"
        },
        {
          "indexed": false,
          "internalType": "uint256",
          "name": "timeLock",
          "type": "uint256"
        },
        {
          "indexed": false,
          "internalType": "uint256",
          "name": "tokens",
          "type": "uint256"
        }
      ],
      "name": "addedStakeHolder",
      "type": "event"
    },
    {
      "inputs": [
        {
          "internalType": "enum Vesting.UserRole",
          "name": "_userRole",
          "type": "uint8"
        },
        {
          "internalType": "address",
          "name": "_stakeHolderAddress",
          "type": "address"
        },
        {
          "internalType": "uint256",
          "name": "_timeLock",
          "type": "uint256"
        },
        {
          "internalType": "uint256",
          "name": "_tokens",
          "type": "uint256"
        },
        {
          "internalType": "address",
          "name": "_organisationAddress",
          "type": "address"
        }
      ],
      "name": "addStakeHolders",
      "outputs": [],
      "stateMutability": "nonpayable",
      "type": "function"
    },
    {
      "inputs": [
        {
          "internalType": "address",
          "name": "_organisationAddress",
          "type": "address"
        },
        {
          "internalType": "enum Vesting.UserRole",
          "name": "_userRole",
          "type": "uint8"
        }
      ],
      "name": "getHolders",
      "outputs": [
        {
          "components": [
            {
              "internalType": "enum Vesting.UserRole",
              "name": "userType",
              "type": "uint8"
            },
            {
              "internalType": "address",
              "name": "stakeHolderAddress",
              "type": "address"
            },
            {
              "internalType": "uint256",
              "name": "timeLock",
              "type": "uint256"
            },
            {
              "internalType": "uint256",
              "name": "tokens",
              "type": "uint256"
            },
            {
              "internalType": "bool",
              "name": "isWhiteListed",
              "type": "bool"
            }
          ],
          "internalType": "struct Vesting.stakeHolder[]",
          "name": "",
          "type": "tuple[]"
        }
      ],
      "stateMutability": "view",
      "type": "function"
    },
    {
      "inputs": [],
      "name": "getOrganisations",
      "outputs": [
        {
          "components": [
            {
              "internalType": "string",
              "name": "tokenName",
              "type": "string"
            },
            {
              "internalType": "string",
              "name": "tokenSymbol",
              "type": "string"
            },
            {
              "internalType": "address",
              "name": "contractAddress",
              "type": "address"
            },
            {
              "internalType": "address",
              "name": "admin",
              "type": "address"
            }
          ],
          "internalType": "struct Vesting.Organisation[]",
          "name": "",
          "type": "tuple[]"
        }
      ],
      "stateMutability": "view",
      "type": "function"
    },
    {
      "inputs": [
        {
          "internalType": "address",
          "name": "_organisationAddress",
          "type": "address"
        }
      ],
      "name": "getWhiteList",
      "outputs": [
        {
          "components": [
            {
              "internalType": "enum Vesting.UserRole",
              "name": "userType",
              "type": "uint8"
            },
            {
              "internalType": "address",
              "name": "stakeHolderAddress",
              "type": "address"
            },
            {
              "internalType": "uint256",
              "name": "timeLock",
              "type": "uint256"
            },
            {
              "internalType": "uint256",
              "name": "tokens",
              "type": "uint256"
            },
            {
              "internalType": "bool",
              "name": "isWhiteListed",
              "type": "bool"
            }
          ],
          "internalType": "struct Vesting.stakeHolder[]",
          "name": "",
          "type": "tuple[]"
        }
      ],
      "stateMutability": "view",
      "type": "function"
    },
    {
      "inputs": [
        {
          "internalType": "address",
          "name": "_organisationAddress",
          "type": "address"
        },
        {
          "internalType": "enum Vesting.UserRole",
          "name": "_userRole",
          "type": "uint8"
        },
        {
          "internalType": "address",
          "name": "_stakeHolderAddress",
          "type": "address"
        },
        {
          "internalType": "uint256",
          "name": "_tokens",
          "type": "uint256"
        }
      ],
      "name": "mintTokens",
      "outputs": [],
      "stateMutability": "nonpayable",
      "type": "function"
    },
    {
      "inputs": [
        {
          "internalType": "string",
          "name": "_tokenName",
          "type": "string"
        },
        {
          "internalType": "string",
          "name": "_tokenSymbol",
          "type": "string"
        }
      ],
      "name": "registerOrganisation",
      "outputs": [],
      "stateMutability": "nonpayable",
      "type": "function"
    },
    {
      "inputs": [
        {
          "internalType": "enum Vesting.UserRole",
          "name": "_userRole",
          "type": "uint8"
        },
        {
          "internalType": "address",
          "name": "_organisationAddress",
          "type": "address"
        }
      ],
      "name": "whitelist",
      "outputs": [],
      "stateMutability": "nonpayable",
      "type": "function"
    }
  ],
  "bytecode": "60806040523480156200001157600080fd5b5060405162001e1d38038062001e1d83398181016040528101906200003791906200023b565b818181600390816200004a91906200050b565b5080600490816200005c91906200050b565b50505033600660006101000a81548173ffffffffffffffffffffffffffffffffffffffff021916908373ffffffffffffffffffffffffffffffffffffffff1602179055505050620005f2565b6000604051905090565b600080fd5b600080fd5b600080fd5b600080fd5b6000601f19601f8301169050919050565b7f4e487b7100000000000000000000000000000000000000000000000000000000600052604160045260246000fd5b6200011182620000c6565b810181811067ffffffffffffffff82111715620001335762000132620000d7565b5b80604052505050565b600062000148620000a8565b905062000156828262000106565b919050565b600067ffffffffffffffff821115620001795762000178620000d7565b5b6200018482620000c6565b9050602081019050919050565b60005b83811015620001b157808201518184015260208101905062000194565b60008484015250505050565b6000620001d4620001ce846200015b565b6200013c565b905082815260208101848484011115620001f357620001f2620000c1565b5b6200020084828562000191565b509392505050565b600082601f83011262000220576200021f620000bc565b5b815162000232848260208601620001bd565b91505092915050565b60008060408385031215620002555762000254620000b2565b5b600083015167ffffffffffffffff811115620002765762000275620000b7565b5b620002848582860162000208565b925050602083015167ffffffffffffffff811115620002a857620002a7620000b7565b5b620002b68582860162000208565b9150509250929050565b600081519050919050565b7f4e487b7100000000000000000000000000000000000000000000000000000000600052602260045260246000fd5b600060028204905060018216806200031357607f821691505b602082108103620003295762000328620002cb565b5b50919050565b60008190508160005260206000209050919050565b60006020601f8301049050919050565b600082821b905092915050565b600060088302620003937fffffffffffffffffffffffffffffffffffffffffffffffffffffffffffffffff8262000354565b6200039f868362000354565b95508019841693508086168417925050509392505050565b6000819050919050565b6000819050919050565b6000620003ec620003e6620003e084620003b7565b620003c1565b620003b7565b9050919050565b6000819050919050565b6200040883620003cb565b620004206200041782620003f3565b84845462000361565b825550505050565b600090565b6200043762000428565b62000444818484620003fd565b505050565b5b818110156200046c57620004606000826200042d565b6001810190506200044a565b5050565b601f821115620004bb5762000485816200032f565b620004908462000344565b81016020851015620004a0578190505b620004b8620004af8562000344565b83018262000449565b50505b505050565b600082821c905092915050565b6000620004e060001984600802620004c0565b1980831691505092915050565b6000620004fb8383620004cd565b9150826002028217905092915050565b6200051682620002c0565b67ffffffffffffffff811115620005325762000531620000d7565b5b6200053e8254620002fa565b6200054b82828562000470565b600060209050601f8311600181146200058357600084156200056e578287015190505b6200057a8582620004ed565b865550620005ea565b601f19841662000593866200032f565b60005b82811015620005bd5784890151825560018201915060208501945060208101905062000596565b86831015620005dd5784890151620005d9601f891682620004cd565b8355505b6001600288020188555050505b505050505050565b61181b80620006026000396000f3fe608060405234801561001057600080fd5b50600436106100f55760003560e01c806340c10f1911610097578063a457c2d711610066578063a457c2d714610286578063a9059cbb146102b6578063aa271e1a146102e6578063dd62ed3e14610316576100f5565b806340c10f191461020057806370a082311461021c57806395d89b411461024c578063983b2d561461026a576100f5565b806323b872dd116100d357806323b872dd146101665780633092afd514610196578063313ce567146101b257806339509351146101d0576100f5565b806306fdde03146100fa578063095ea7b31461011857806318160ddd14610148575b600080fd5b610102610346565b60405161010f9190610fb4565b60405180910390f35b610132600480360381019061012d919061106f565b6103d8565b60405161013f91906110ca565b60405180910390f35b6101506103fb565b60405161015d91906110f4565b60405180910390f35b610180600480360381019061017b919061110f565b610405565b60405161018d91906110ca565b60405180910390f35b6101b060048036038101906101ab9190611162565b610434565b005b6101ba61051f565b6040516101c791906111ab565b60405180910390f35b6101ea60048036038101906101e5919061106f565b610528565b6040516101f791906110ca565b60405180910390f35b61021a6004803603810190610215919061106f565b61055f565b005b61023660048036038101906102319190611162565b6105b5565b60405161024391906110f4565b60405180910390f35b6102546105fd565b6040516102619190610fb4565b60405180910390f35b610284600480360381019061027f9190611162565b61068f565b005b6102a0600480360381019061029b919061106f565b61077a565b6040516102ad91906110ca565b60405180910390f35b6102d060048036038101906102cb919061106f565b6107f1565b6040516102dd91906110ca565b60405180910390f35b61030060048036038101906102fb9190611162565b610814565b60405161030d91906110ca565b60405180910390f35b610330600480360381019061032b91906111c6565b61086a565b60405161033d91906110f4565b60405180910390f35b60606003805461035590611235565b80601f016020809104026020016040519081016040528092919081815260200182805461038190611235565b80156103ce5780601f106103a3576101008083540402835291602001916103ce565b820191906000526020600020905b8154815290600101906020018083116103b157829003601f168201915b5050505050905090565b6000806103e36108f1565b90506103f08185856108f9565b600191505092915050565b6000600254905090565b6000806104106108f1565b905061041d858285610ac2565b610428858585610b4e565b60019150509392505050565b600660009054906101000a900473ffffffffffffffffffffffffffffffffffffffff1673ffffffffffffffffffffffffffffffffffffffff163373ffffffffffffffffffffffffffffffffffffffff16146104c4576040517f08c379a00000000000000000000000000000000000000000000000000000000081526004016104bb906112b2565b60405180910390fd5b6000600560008373ffffffffffffffffffffffffffffffffffffffff1673ffffffffffffffffffffffffffffffffffffffff16815260200190815260200160002060006101000a81548160ff02191690831515021790555050565b60006012905090565b6000806105336108f1565b9050610554818585610545858961086a565b61054f9190611301565b6108f9565b600191505092915050565b61056833610814565b6105a7576040517f08c379a000000000000000000000000000000000000000000000000000000000815260040161059e90611381565b60405180910390fd5b6105b18282610dc4565b5050565b60008060008373ffffffffffffffffffffffffffffffffffffffff1673ffffffffffffffffffffffffffffffffffffffff168152602001908152602001600020549050919050565b60606004805461060c90611235565b80601f016020809104026020016040519081016040528092919081815260200182805461063890611235565b80156106855780601f1061065a57610100808354040283529160200191610685565b820191906000526020600020905b81548152906001019060200180831161066857829003601f168201915b5050505050905090565b600660009054906101000a900473ffffffffffffffffffffffffffffffffffffffff1673ffffffffffffffffffffffffffffffffffffffff163373ffffffffffffffffffffffffffffffffffffffff161461071f576040517f08c379a0000000000000000000000000000000000000000000000000000000008152600401610716906112b2565b60405180910390fd5b6001600560008373ffffffffffffffffffffffffffffffffffffffff1673ffffffffffffffffffffffffffffffffffffffff16815260200190815260200160002060006101000a81548160ff02191690831515021790555050565b6000806107856108f1565b90506000610793828661086a565b9050838110156107d8576040517f08c379a00000000000000000000000000000000000000000000000000000000081526004016107cf90611413565b60405180910390fd5b6107e582868684036108f9565b60019250505092915050565b6000806107fc6108f1565b9050610809818585610b4e565b600191505092915050565b6000600560008373ffffffffffffffffffffffffffffffffffffffff1673ffffffffffffffffffffffffffffffffffffffff16815260200190815260200160002060009054906101000a900460ff169050919050565b6000600160008473ffffffffffffffffffffffffffffffffffffffff1673ffffffffffffffffffffffffffffffffffffffff16815260200190815260200160002060008373ffffffffffffffffffffffffffffffffffffffff1673ffffffffffffffffffffffffffffffffffffffff16815260200190815260200160002054905092915050565b600033905090565b600073ffffffffffffffffffffffffffffffffffffffff168373ffffffffffffffffffffffffffffffffffffffff1603610968576040517f08c379a000000000000000000000000000000000000000000000000000000000815260040161095f906114a5565b60405180910390fd5b600073ffffffffffffffffffffffffffffffffffffffff168273ffffffffffffffffffffffffffffffffffffffff16036109d7576040517f08c379a00000000000000000000000000000000000000000000000000000000081526004016109ce90611537565b60405180910390fd5b80600160008573ffffffffffffffffffffffffffffffffffffffff1673ffffffffffffffffffffffffffffffffffffffff16815260200190815260200160002060008473ffffffffffffffffffffffffffffffffffffffff1673ffffffffffffffffffffffffffffffffffffffff168152602001908152602001600020819055508173ffffffffffffffffffffffffffffffffffffffff168373ffffffffffffffffffffffffffffffffffffffff167f8c5be1e5ebec7d5bd14f71427d1e84f3dd0314c0f7b2291e5b200ac8c7c3b92583604051610ab591906110f4565b60405180910390a3505050565b6000610ace848461086a565b90507fffffffffffffffffffffffffffffffffffffffffffffffffffffffffffffffff8114610b485781811015610b3a576040517f08c379a0000000000000000000000000000000000000000000000000000000008152600401610b31906115a3565b60405180910390fd5b610b4784848484036108f9565b5b50505050565b600073ffffffffffffffffffffffffffffffffffffffff168373ffffffffffffffffffffffffffffffffffffffff1603610bbd576040517f08c379a0000000000000000000000000000000000000000000000000000000008152600401610bb490611635565b60405180910390fd5b600073ffffffffffffffffffffffffffffffffffffffff168273ffffffffffffffffffffffffffffffffffffffff1603610c2c576040517f08c379a0000000000000000000000000000000000000000000000000000000008152600401610c23906116c7565b60405180910390fd5b610c37838383610f1a565b60008060008573ffffffffffffffffffffffffffffffffffffffff1673ffffffffffffffffffffffffffffffffffffffff16815260200190815260200160002054905081811015610cbd576040517f08c379a0000000000000000000000000000000000000000000000000000000008152600401610cb490611759565b60405180910390fd5b8181036000808673ffffffffffffffffffffffffffffffffffffffff1673ffffffffffffffffffffffffffffffffffffffff16815260200190815260200160002081905550816000808573ffffffffffffffffffffffffffffffffffffffff1673ffffffffffffffffffffffffffffffffffffffff168152602001908152602001600020600082825401925050819055508273ffffffffffffffffffffffffffffffffffffffff168473ffffffffffffffffffffffffffffffffffffffff167fddf252ad1be2c89b69c2b068fc378daa952ba7f163c4a11628f55a4df523b3ef84604051610dab91906110f4565b60405180910390a3610dbe848484610f1f565b50505050565b600073ffffffffffffffffffffffffffffffffffffffff168273ffffffffffffffffffffffffffffffffffffffff1603610e33576040517f08c379a0000000000000000000000000000000000000000000000000000000008152600401610e2a906117c5565b60405180910390fd5b610e3f60008383610f1a565b8060026000828254610e519190611301565b92505081905550806000808473ffffffffffffffffffffffffffffffffffffffff1673ffffffffffffffffffffffffffffffffffffffff168152602001908152602001600020600082825401925050819055508173ffffffffffffffffffffffffffffffffffffffff16600073ffffffffffffffffffffffffffffffffffffffff167fddf252ad1be2c89b69c2b068fc378daa952ba7f163c4a11628f55a4df523b3ef83604051610f0291906110f4565b60405180910390a3610f1660008383610f1f565b5050565b505050565b505050565b600081519050919050565b600082825260208201905092915050565b60005b83811015610f5e578082015181840152602081019050610f43565b60008484015250505050565b6000601f19601f8301169050919050565b6000610f8682610f24565b610f908185610f2f565b9350610fa0818560208601610f40565b610fa981610f6a565b840191505092915050565b60006020820190508181036000830152610fce8184610f7b565b905092915050565b600080fd5b600073ffffffffffffffffffffffffffffffffffffffff82169050919050565b600061100682610fdb565b9050919050565b61101681610ffb565b811461102157600080fd5b50565b6000813590506110338161100d565b92915050565b6000819050919050565b61104c81611039565b811461105757600080fd5b50565b60008135905061106981611043565b92915050565b6000806040838503121561108657611085610fd6565b5b600061109485828601611024565b92505060206110a58582860161105a565b9150509250929050565b60008115159050919050565b6110c4816110af565b82525050565b60006020820190506110df60008301846110bb565b92915050565b6110ee81611039565b82525050565b600060208201905061110960008301846110e5565b92915050565b60008060006060848603121561112857611127610fd6565b5b600061113686828701611024565b935050602061114786828701611024565b92505060406111588682870161105a565b9150509250925092565b60006020828403121561117857611177610fd6565b5b600061118684828501611024565b91505092915050565b600060ff82169050919050565b6111a58161118f565b82525050565b60006020820190506111c0600083018461119c565b92915050565b600080604083850312156111dd576111dc610fd6565b5b60006111eb85828601611024565b92505060206111fc85828601611024565b9150509250929050565b7f4e487b7100000000000000000000000000000000000000000000000000000000600052602260045260246000fd5b6000600282049050600182168061124d57607f821691505b6020821081036112605761125f611206565b5b50919050565b7f4f6e6c79204f776e65722063616e20646f000000000000000000000000000000600082015250565b600061129c601183610f2f565b91506112a782611266565b602082019050919050565b600060208201905081810360008301526112cb8161128f565b9050919050565b7f4e487b7100000000000000000000000000000000000000000000000000000000600052601160045260246000fd5b600061130c82611039565b915061131783611039565b925082820190508082111561132f5761132e6112d2565b5b92915050565b7f4e6f7420617574686f72697a656420746f206d696e7420746f6b656e73000000600082015250565b600061136b601d83610f2f565b915061137682611335565b602082019050919050565b6000602082019050818103600083015261139a8161135e565b9050919050565b7f45524332303a2064656372656173656420616c6c6f77616e63652062656c6f7760008201527f207a65726f000000000000000000000000000000000000000000000000000000602082015250565b60006113fd602583610f2f565b9150611408826113a1565b604082019050919050565b6000602082019050818103600083015261142c816113f0565b9050919050565b7f45524332303a20617070726f76652066726f6d20746865207a65726f2061646460008201527f7265737300000000000000000000000000000000000000000000000000000000602082015250565b600061148f602483610f2f565b915061149a82611433565b604082019050919050565b600060208201905081810360008301526114be81611482565b9050919050565b7f45524332303a20617070726f766520746f20746865207a65726f20616464726560008201527f7373000000000000000000000000000000000000000000000000000000000000602082015250565b6000611521602283610f2f565b915061152c826114c5565b604082019050919050565b6000602082019050818103600083015261155081611514565b9050919050565b7f45524332303a20696e73756666696369656e7420616c6c6f77616e6365000000600082015250565b600061158d601d83610f2f565b915061159882611557565b602082019050919050565b600060208201905081810360008301526115bc81611580565b9050919050565b7f45524332303a207472616e736665722066726f6d20746865207a65726f20616460008201527f6472657373000000000000000000000000000000000000000000000000000000602082015250565b600061161f602583610f2f565b915061162a826115c3565b604082019050919050565b6000602082019050818103600083015261164e81611612565b9050919050565b7f45524332303a207472616e7366657220746f20746865207a65726f206164647260008201527f6573730000000000000000000000000000000000000000000000000000000000602082015250565b60006116b1602383610f2f565b91506116bc82611655565b604082019050919050565b600060208201905081810360008301526116e0816116a4565b9050919050565b7f45524332303a207472616e7366657220616d6f756e742065786365656473206260008201527f616c616e63650000000000000000000000000000000000000000000000000000602082015250565b6000611743602683610f2f565b915061174e826116e7565b604082019050919050565b6000602082019050818103600083015261177281611736565b9050919050565b7f45524332303a206d696e7420746f20746865207a65726f206164647265737300600082015250565b60006117af601f83610f2f565b91506117ba82611779565b602082019050919050565b600060208201905081810360008301526117de816117a2565b905091905056fea26469706673582212201c60bce0ce7b43c2ec3d4e0e7c862dbda1c7ada4b6e4eb1cbf8672f0602f04a264736f6c63430008120033",
  "linkReferences": {},
  "deployedLinkReferences": {}
}